{
  "contractName": "TWDemo",
  "abi": [
    {
      "inputs": [
        {
          "internalType": "address",
          "name": "_communityIncentivesWallet",
          "type": "address"
        },
        {
          "internalType": "address",
          "name": "_merchantAdoptionWallet",
          "type": "address"
        },
        {
          "internalType": "address",
          "name": "_ecosystemDevelopmentWallet",
          "type": "address"
        },
        {
          "internalType": "address",
          "name": "_teamAndAdvisorsWallet",
          "type": "address"
        },
        {
          "internalType": "address",
          "name": "_liquidityAndExchangeWallet",
          "type": "address"
        },
        {
          "internalType": "address",
          "name": "_reserveFundWallet",
          "type": "address"
        }
      ],
      "stateMutability": "nonpayable",
      "type": "constructor"
    },
    {
      "inputs": [
        {
          "internalType": "address",
          "name": "spender",
          "type": "address"
        },
        {
          "internalType": "uint256",
          "name": "allowance",
          "type": "uint256"
        },
        {
          "internalType": "uint256",
          "name": "needed",
          "type": "uint256"
        }
      ],
      "name": "ERC20InsufficientAllowance",
      "type": "error"
    },
    {
      "inputs": [
        {
          "internalType": "address",
          "name": "sender",
          "type": "address"
        },
        {
          "internalType": "uint256",
          "name": "balance",
          "type": "uint256"
        },
        {
          "internalType": "uint256",
          "name": "needed",
          "type": "uint256"
        }
      ],
      "name": "ERC20InsufficientBalance",
      "type": "error"
    },
    {
      "inputs": [
        {
          "internalType": "address",
          "name": "approver",
          "type": "address"
        }
      ],
      "name": "ERC20InvalidApprover",
      "type": "error"
    },
    {
      "inputs": [
        {
          "internalType": "address",
          "name": "receiver",
          "type": "address"
        }
      ],
      "name": "ERC20InvalidReceiver",
      "type": "error"
    },
    {
      "inputs": [
        {
          "internalType": "address",
          "name": "sender",
          "type": "address"
        }
      ],
      "name": "ERC20InvalidSender",
      "type": "error"
    },
    {
      "inputs": [
        {
          "internalType": "address",
          "name": "spender",
          "type": "address"
        }
      ],
      "name": "ERC20InvalidSpender",
      "type": "error"
    },
    {
      "inputs": [
        {
          "internalType": "address",
          "name": "owner",
          "type": "address"
        }
      ],
      "name": "OwnableInvalidOwner",
      "type": "error"
    },
    {
      "inputs": [
        {
          "internalType": "address",
          "name": "account",
          "type": "address"
        }
      ],
      "name": "OwnableUnauthorizedAccount",
      "type": "error"
    },
    {
      "anonymous": false,
      "inputs": [
        {
          "indexed": true,
          "internalType": "address",
          "name": "owner",
          "type": "address"
        },
        {
          "indexed": true,
          "internalType": "address",
          "name": "spender",
          "type": "address"
        },
        {
          "indexed": false,
          "internalType": "uint256",
          "name": "value",
          "type": "uint256"
        }
      ],
      "name": "Approval",
      "type": "event"
    },
    {
      "anonymous": false,
      "inputs": [
        {
          "indexed": true,
          "internalType": "address",
          "name": "previousOwner",
          "type": "address"
        },
        {
          "indexed": true,
          "internalType": "address",
          "name": "newOwner",
          "type": "address"
        }
      ],
      "name": "OwnershipTransferred",
      "type": "event"
    },
    {
      "anonymous": false,
      "inputs": [
        {
          "indexed": true,
          "internalType": "address",
          "name": "from",
          "type": "address"
        },
        {
          "indexed": true,
          "internalType": "address",
          "name": "to",
          "type": "address"
        },
        {
          "indexed": false,
          "internalType": "uint256",
          "name": "value",
          "type": "uint256"
        }
      ],
      "name": "Transfer",
      "type": "event"
    },
    {
      "inputs": [
        {
          "internalType": "address",
          "name": "owner",
          "type": "address"
        },
        {
          "internalType": "address",
          "name": "spender",
          "type": "address"
        }
      ],
      "name": "allowance",
      "outputs": [
        {
          "internalType": "uint256",
          "name": "",
          "type": "uint256"
        }
      ],
      "stateMutability": "view",
      "type": "function",
      "constant": true
    },
    {
      "inputs": [
        {
          "internalType": "address",
          "name": "spender",
          "type": "address"
        },
        {
          "internalType": "uint256",
          "name": "value",
          "type": "uint256"
        }
      ],
      "name": "approve",
      "outputs": [
        {
          "internalType": "bool",
          "name": "",
          "type": "bool"
        }
      ],
      "stateMutability": "nonpayable",
      "type": "function"
    },
    {
      "inputs": [
        {
          "internalType": "address",
          "name": "account",
          "type": "address"
        }
      ],
      "name": "balanceOf",
      "outputs": [
        {
          "internalType": "uint256",
          "name": "",
          "type": "uint256"
        }
      ],
      "stateMutability": "view",
      "type": "function",
      "constant": true
    },
    {
      "inputs": [],
      "name": "communityIncentivesWallet",
      "outputs": [
        {
          "internalType": "address",
          "name": "",
          "type": "address"
        }
      ],
      "stateMutability": "view",
      "type": "function",
      "constant": true
    },
    {
      "inputs": [],
      "name": "decimals",
      "outputs": [
        {
          "internalType": "uint8",
          "name": "",
          "type": "uint8"
        }
      ],
      "stateMutability": "view",
      "type": "function",
      "constant": true
    },
    {
      "inputs": [],
      "name": "ecosystemDevelopmentWallet",
      "outputs": [
        {
          "internalType": "address",
          "name": "",
          "type": "address"
        }
      ],
      "stateMutability": "view",
      "type": "function",
      "constant": true
    },
    {
      "inputs": [],
      "name": "liquidityAndExchangeWallet",
      "outputs": [
        {
          "internalType": "address",
          "name": "",
          "type": "address"
        }
      ],
      "stateMutability": "view",
      "type": "function",
      "constant": true
    },
    {
      "inputs": [],
      "name": "merchantAdoptionWallet",
      "outputs": [
        {
          "internalType": "address",
          "name": "",
          "type": "address"
        }
      ],
      "stateMutability": "view",
      "type": "function",
      "constant": true
    },
    {
      "inputs": [],
      "name": "name",
      "outputs": [
        {
          "internalType": "string",
          "name": "",
          "type": "string"
        }
      ],
      "stateMutability": "view",
      "type": "function",
      "constant": true
    },
    {
      "inputs": [],
      "name": "owner",
      "outputs": [
        {
          "internalType": "address",
          "name": "",
          "type": "address"
        }
      ],
      "stateMutability": "view",
      "type": "function",
      "constant": true
    },
    {
      "inputs": [],
      "name": "renounceOwnership",
      "outputs": [],
      "stateMutability": "nonpayable",
      "type": "function"
    },
    {
      "inputs": [],
      "name": "reserveFundWallet",
      "outputs": [
        {
          "internalType": "address",
          "name": "",
          "type": "address"
        }
      ],
      "stateMutability": "view",
      "type": "function",
      "constant": true
    },
    {
      "inputs": [],
      "name": "symbol",
      "outputs": [
        {
          "internalType": "string",
          "name": "",
          "type": "string"
        }
      ],
      "stateMutability": "view",
      "type": "function",
      "constant": true
    },
    {
      "inputs": [],
      "name": "teamAndAdvisorsWallet",
      "outputs": [
        {
          "internalType": "address",
          "name": "",
          "type": "address"
        }
      ],
      "stateMutability": "view",
      "type": "function",
      "constant": true
    },
    {
      "inputs": [],
      "name": "totalSupply",
      "outputs": [
        {
          "internalType": "uint256",
          "name": "",
          "type": "uint256"
        }
      ],
      "stateMutability": "view",
      "type": "function",
      "constant": true
    },
    {
      "inputs": [
        {
          "internalType": "address",
          "name": "to",
          "type": "address"
        },
        {
          "internalType": "uint256",
          "name": "value",
          "type": "uint256"
        }
      ],
      "name": "transfer",
      "outputs": [
        {
          "internalType": "bool",
          "name": "",
          "type": "bool"
        }
      ],
      "stateMutability": "nonpayable",
      "type": "function"
    },
    {
      "inputs": [
        {
          "internalType": "address",
          "name": "from",
          "type": "address"
        },
        {
          "internalType": "address",
          "name": "to",
          "type": "address"
        },
        {
          "internalType": "uint256",
          "name": "value",
          "type": "uint256"
        }
      ],
      "name": "transferFrom",
      "outputs": [
        {
          "internalType": "bool",
          "name": "",
          "type": "bool"
        }
      ],
      "stateMutability": "nonpayable",
      "type": "function"
    },
    {
      "inputs": [
        {
          "internalType": "address",
          "name": "newOwner",
          "type": "address"
        }
      ],
      "name": "transferOwnership",
      "outputs": [],
      "stateMutability": "nonpayable",
      "type": "function"
    },
    {
      "inputs": [
        {
          "internalType": "address",
          "name": "to",
          "type": "address"
        },
        {
          "internalType": "uint256",
          "name": "amount",
          "type": "uint256"
        }
      ],
      "name": "mint",
      "outputs": [],
      "stateMutability": "nonpayable",
      "type": "function"
    },
    {
      "inputs": [
        {
          "internalType": "uint256",
          "name": "amount",
          "type": "uint256"
        }
      ],
      "name": "burn",
      "outputs": [],
      "stateMutability": "nonpayable",
      "type": "function"
    }
  ],
  "bytecode": "0x608060405234801562000010575f80fd5b5060405162002267380380620022678339818101604052810190620000369190620008d2565b336040518060400160405280600781526020017f54572044656d6f000000000000000000000000000000000000000000000000008152506040518060400160405280600681526020017f545744656d6f00000000000000000000000000000000000000000000000000008152508160039081620000b4919062000bce565b508060049081620000c6919062000bce565b5050505f73ffffffffffffffffffffffffffffffffffffffff168173ffffffffffffffffffffffffffffffffffffffff16036200013c575f6040517f1e4fbdf700000000000000000000000000000000000000000000000000000000815260040162000133919062000cc3565b60405180910390fd5b6200014d81620004fc60201b60201c565b508560065f6101000a81548173ffffffffffffffffffffffffffffffffffffffff021916908373ffffffffffffffffffffffffffffffffffffffff1602179055508460075f6101000a81548173ffffffffffffffffffffffffffffffffffffffff021916908373ffffffffffffffffffffffffffffffffffffffff1602179055508360085f6101000a81548173ffffffffffffffffffffffffffffffffffffffff021916908373ffffffffffffffffffffffffffffffffffffffff1602179055508260095f6101000a81548173ffffffffffffffffffffffffffffffffffffffff021916908373ffffffffffffffffffffffffffffffffffffffff16021790555081600a5f6101000a81548173ffffffffffffffffffffffffffffffffffffffff021916908373ffffffffffffffffffffffffffffffffffffffff16021790555080600b5f6101000a81548173ffffffffffffffffffffffffffffffffffffffff021916908373ffffffffffffffffffffffffffffffffffffffff1602179055506200032960065f9054906101000a900473ffffffffffffffffffffffffffffffffffffffff16606460236b033b2e3c9fd0803ce800000062000311919062000d0b565b6200031d919062000d82565b620005bf60201b60201c565b6200038460075f9054906101000a900473ffffffffffffffffffffffffffffffffffffffff16606460146b033b2e3c9fd0803ce80000006200036c919062000d0b565b62000378919062000d82565b620005bf60201b60201c565b620003df60085f9054906101000a900473ffffffffffffffffffffffffffffffffffffffff16606460146b033b2e3c9fd0803ce8000000620003c7919062000d0b565b620003d3919062000d82565b620005bf60201b60201c565b6200043a60095f9054906101000a900473ffffffffffffffffffffffffffffffffffffffff166064600a6b033b2e3c9fd0803ce800000062000422919062000d0b565b6200042e919062000d82565b620005bf60201b60201c565b62000495600a5f9054906101000a900473ffffffffffffffffffffffffffffffffffffffff166064600a6b033b2e3c9fd0803ce80000006200047d919062000d0b565b62000489919062000d82565b620005bf60201b60201c565b620004f0600b5f9054906101000a900473ffffffffffffffffffffffffffffffffffffffff16606460056b033b2e3c9fd0803ce8000000620004d8919062000d0b565b620004e4919062000d82565b620005bf60201b60201c565b50505050505062000e5a565b5f60055f9054906101000a900473ffffffffffffffffffffffffffffffffffffffff1690508160055f6101000a81548173ffffffffffffffffffffffffffffffffffffffff021916908373ffffffffffffffffffffffffffffffffffffffff1602179055508173ffffffffffffffffffffffffffffffffffffffff168173ffffffffffffffffffffffffffffffffffffffff167f8be0079c531659141344cd1fd0a4f28419497f9722a3daafe3b4186f6b6457e060405160405180910390a35050565b5f73ffffffffffffffffffffffffffffffffffffffff168273ffffffffffffffffffffffffffffffffffffffff160362000632575f6040517fec442f0500000000000000000000000000000000000000000000000000000000815260040162000629919062000cc3565b60405180910390fd5b620006455f83836200064960201b60201c565b5050565b5f73ffffffffffffffffffffffffffffffffffffffff168373ffffffffffffffffffffffffffffffffffffffff16036200069d578060025f82825462000690919062000db9565b925050819055506200076e565b5f805f8573ffffffffffffffffffffffffffffffffffffffff1673ffffffffffffffffffffffffffffffffffffffff1681526020019081526020015f205490508181101562000729578381836040517fe450d38c000000000000000000000000000000000000000000000000000000008152600401620007209392919062000e04565b60405180910390fd5b8181035f808673ffffffffffffffffffffffffffffffffffffffff1673ffffffffffffffffffffffffffffffffffffffff1681526020019081526020015f2081905550505b5f73ffffffffffffffffffffffffffffffffffffffff168273ffffffffffffffffffffffffffffffffffffffff1603620007b7578060025f828254039250508190555062000801565b805f808473ffffffffffffffffffffffffffffffffffffffff1673ffffffffffffffffffffffffffffffffffffffff1681526020019081526020015f205f82825401925050819055505b8173ffffffffffffffffffffffffffffffffffffffff168373ffffffffffffffffffffffffffffffffffffffff167fddf252ad1be2c89b69c2b068fc378daa952ba7f163c4a11628f55a4df523b3ef8360405162000860919062000e3f565b60405180910390a3505050565b5f80fd5b5f73ffffffffffffffffffffffffffffffffffffffff82169050919050565b5f6200089c8262000871565b9050919050565b620008ae8162000890565b8114620008b9575f80fd5b50565b5f81519050620008cc81620008a3565b92915050565b5f805f805f8060c08789031215620008ef57620008ee6200086d565b5b5f620008fe89828a01620008bc565b96505060206200091189828a01620008bc565b95505060406200092489828a01620008bc565b94505060606200093789828a01620008bc565b93505060806200094a89828a01620008bc565b92505060a06200095d89828a01620008bc565b9150509295509295509295565b5f81519050919050565b7f4e487b71000000000000000000000000000000000000000000000000000000005f52604160045260245ffd5b7f4e487b71000000000000000000000000000000000000000000000000000000005f52602260045260245ffd5b5f6002820490506001821680620009e657607f821691505b602082108103620009fc57620009fb620009a1565b5b50919050565b5f819050815f5260205f209050919050565b5f6020601f8301049050919050565b5f82821b905092915050565b5f6008830262000a607fffffffffffffffffffffffffffffffffffffffffffffffffffffffffffffffff8262000a23565b62000a6c868362000a23565b95508019841693508086168417925050509392505050565b5f819050919050565b5f819050919050565b5f62000ab662000ab062000aaa8462000a84565b62000a8d565b62000a84565b9050919050565b5f819050919050565b62000ad18362000a96565b62000ae962000ae08262000abd565b84845462000a2f565b825550505050565b5f90565b62000aff62000af1565b62000b0c81848462000ac6565b505050565b5b8181101562000b335762000b275f8262000af5565b60018101905062000b12565b5050565b601f82111562000b825762000b4c8162000a02565b62000b578462000a14565b8101602085101562000b67578190505b62000b7f62000b768562000a14565b83018262000b11565b50505b505050565b5f82821c905092915050565b5f62000ba45f198460080262000b87565b1980831691505092915050565b5f62000bbe838362000b93565b9150826002028217905092915050565b62000bd9826200096a565b67ffffffffffffffff81111562000bf55762000bf462000974565b5b62000c018254620009ce565b62000c0e82828562000b37565b5f60209050601f83116001811462000c44575f841562000c2f578287015190505b62000c3b858262000bb1565b86555062000caa565b601f19841662000c548662000a02565b5f5b8281101562000c7d5784890151825560018201915060208501945060208101905062000c56565b8683101562000c9d578489015162000c99601f89168262000b93565b8355505b6001600288020188555050505b505050505050565b62000cbd8162000890565b82525050565b5f60208201905062000cd85f83018462000cb2565b92915050565b7f4e487b71000000000000000000000000000000000000000000000000000000005f52601160045260245ffd5b5f62000d178262000a84565b915062000d248362000a84565b925082820262000d348162000a84565b9150828204841483151762000d4e5762000d4d62000cde565b5b5092915050565b7f4e487b71000000000000000000000000000000000000000000000000000000005f52601260045260245ffd5b5f62000d8e8262000a84565b915062000d9b8362000a84565b92508262000dae5762000dad62000d55565b5b828204905092915050565b5f62000dc58262000a84565b915062000dd28362000a84565b925082820190508082111562000ded5762000dec62000cde565b5b92915050565b62000dfe8162000a84565b82525050565b5f60608201905062000e195f83018662000cb2565b62000e28602083018562000df3565b62000e37604083018462000df3565b949350505050565b5f60208201905062000e545f83018462000df3565b92915050565b6113ff8062000e685f395ff3fe608060405234801561000f575f80fd5b506004361061012a575f3560e01c806370a08231116100ab578063a9059cbb1161006f578063a9059cbb1461030e578063d3a986431461033e578063dd62ed3e1461035c578063f238a11f1461038c578063f2fde38b146103aa5761012a565b806370a082311461027a578063715018a6146102aa5780638da5cb5b146102b45780638dcef09c146102d257806395d89b41146102f05761012a565b806340c10f19116100f257806340c10f19146101e857806342966c68146102045780635b85d88f146102205780635e62dc931461023e578063684ff5751461025c5761012a565b806306fdde031461012e578063095ea7b31461014c57806318160ddd1461017c57806323b872dd1461019a578063313ce567146101ca575b5f80fd5b6101366103c6565b604051610143919061104d565b60405180910390f35b610166600480360381019061016191906110fe565b610456565b6040516101739190611156565b60405180910390f35b610184610478565b604051610191919061117e565b60405180910390f35b6101b460048036038101906101af9190611197565b610481565b6040516101c19190611156565b60405180910390f35b6101d26104af565b6040516101df9190611202565b60405180910390f35b61020260048036038101906101fd91906110fe565b6104b7565b005b61021e6004803603810190610219919061121b565b6104cd565b005b6102286104e2565b6040516102359190611255565b60405180910390f35b610246610507565b6040516102539190611255565b60405180910390f35b61026461052c565b6040516102719190611255565b60405180910390f35b610294600480360381019061028f919061126e565b610551565b6040516102a1919061117e565b60405180910390f35b6102b2610596565b005b6102bc6105a9565b6040516102c99190611255565b60405180910390f35b6102da6105d1565b6040516102e79190611255565b60405180910390f35b6102f86105f6565b604051610305919061104d565b60405180910390f35b610328600480360381019061032391906110fe565b610686565b6040516103359190611156565b60405180910390f35b6103466106a8565b6040516103539190611255565b60405180910390f35b61037660048036038101906103719190611299565b6106cd565b604051610383919061117e565b60405180910390f35b61039461074f565b6040516103a19190611255565b60405180910390f35b6103c460048036038101906103bf919061126e565b610774565b005b6060600380546103d590611304565b80601f016020809104026020016040519081016040528092919081815260200182805461040190611304565b801561044c5780601f106104235761010080835404028352916020019161044c565b820191905f5260205f20905b81548152906001019060200180831161042f57829003601f168201915b5050505050905090565b5f806104606107f8565b905061046d8185856107ff565b600191505092915050565b5f600254905090565b5f8061048b6107f8565b9050610498858285610811565b6104a38585856108a3565b60019150509392505050565b5f6012905090565b6104bf610993565b6104c98282610a1a565b5050565b6104d5610993565b6104df3382610a99565b50565b60085f9054906101000a900473ffffffffffffffffffffffffffffffffffffffff1681565b600a5f9054906101000a900473ffffffffffffffffffffffffffffffffffffffff1681565b60075f9054906101000a900473ffffffffffffffffffffffffffffffffffffffff1681565b5f805f8373ffffffffffffffffffffffffffffffffffffffff1673ffffffffffffffffffffffffffffffffffffffff1681526020019081526020015f20549050919050565b61059e610993565b6105a75f610b18565b565b5f60055f9054906101000a900473ffffffffffffffffffffffffffffffffffffffff16905090565b600b5f9054906101000a900473ffffffffffffffffffffffffffffffffffffffff1681565b60606004805461060590611304565b80601f016020809104026020016040519081016040528092919081815260200182805461063190611304565b801561067c5780601f106106535761010080835404028352916020019161067c565b820191905f5260205f20905b81548152906001019060200180831161065f57829003601f168201915b5050505050905090565b5f806106906107f8565b905061069d8185856108a3565b600191505092915050565b60095f9054906101000a900473ffffffffffffffffffffffffffffffffffffffff1681565b5f60015f8473ffffffffffffffffffffffffffffffffffffffff1673ffffffffffffffffffffffffffffffffffffffff1681526020019081526020015f205f8373ffffffffffffffffffffffffffffffffffffffff1673ffffffffffffffffffffffffffffffffffffffff1681526020019081526020015f2054905092915050565b60065f9054906101000a900473ffffffffffffffffffffffffffffffffffffffff1681565b61077c610993565b5f73ffffffffffffffffffffffffffffffffffffffff168173ffffffffffffffffffffffffffffffffffffffff16036107ec575f6040517f1e4fbdf70000000000000000000000000000000000000000000000000000000081526004016107e39190611255565b60405180910390fd5b6107f581610b18565b50565b5f33905090565b61080c8383836001610bdb565b505050565b5f61081c84846106cd565b90507fffffffffffffffffffffffffffffffffffffffffffffffffffffffffffffffff811461089d578181101561088e578281836040517ffb8f41b200000000000000000000000000000000000000000000000000000000815260040161088593929190611334565b60405180910390fd5b61089c84848484035f610bdb565b5b50505050565b5f73ffffffffffffffffffffffffffffffffffffffff168373ffffffffffffffffffffffffffffffffffffffff1603610913575f6040517f96c6fd1e00000000000000000000000000000000000000000000000000000000815260040161090a9190611255565b60405180910390fd5b5f73ffffffffffffffffffffffffffffffffffffffff168273ffffffffffffffffffffffffffffffffffffffff1603610983575f6040517fec442f0500000000000000000000000000000000000000000000000000000000815260040161097a9190611255565b60405180910390fd5b61098e838383610daa565b505050565b61099b6107f8565b73ffffffffffffffffffffffffffffffffffffffff166109b96105a9565b73ffffffffffffffffffffffffffffffffffffffff1614610a18576109dc6107f8565b6040517f118cdaa7000000000000000000000000000000000000000000000000000000008152600401610a0f9190611255565b60405180910390fd5b565b5f73ffffffffffffffffffffffffffffffffffffffff168273ffffffffffffffffffffffffffffffffffffffff1603610a8a575f6040517fec442f05000000000000000000000000000000000000000000000000000000008152600401610a819190611255565b60405180910390fd5b610a955f8383610daa565b5050565b5f73ffffffffffffffffffffffffffffffffffffffff168273ffffffffffffffffffffffffffffffffffffffff1603610b09575f6040517f96c6fd1e000000000000000000000000000000000000000000000000000000008152600401610b009190611255565b60405180910390fd5b610b14825f83610daa565b5050565b5f60055f9054906101000a900473ffffffffffffffffffffffffffffffffffffffff1690508160055f6101000a81548173ffffffffffffffffffffffffffffffffffffffff021916908373ffffffffffffffffffffffffffffffffffffffff1602179055508173ffffffffffffffffffffffffffffffffffffffff168173ffffffffffffffffffffffffffffffffffffffff167f8be0079c531659141344cd1fd0a4f28419497f9722a3daafe3b4186f6b6457e060405160405180910390a35050565b5f73ffffffffffffffffffffffffffffffffffffffff168473ffffffffffffffffffffffffffffffffffffffff1603610c4b575f6040517fe602df05000000000000000000000000000000000000000000000000000000008152600401610c429190611255565b60405180910390fd5b5f73ffffffffffffffffffffffffffffffffffffffff168373ffffffffffffffffffffffffffffffffffffffff1603610cbb575f6040517f94280d62000000000000000000000000000000000000000000000000000000008152600401610cb29190611255565b60405180910390fd5b8160015f8673ffffffffffffffffffffffffffffffffffffffff1673ffffffffffffffffffffffffffffffffffffffff1681526020019081526020015f205f8573ffffffffffffffffffffffffffffffffffffffff1673ffffffffffffffffffffffffffffffffffffffff1681526020019081526020015f20819055508015610da4578273ffffffffffffffffffffffffffffffffffffffff168473ffffffffffffffffffffffffffffffffffffffff167f8c5be1e5ebec7d5bd14f71427d1e84f3dd0314c0f7b2291e5b200ac8c7c3b92584604051610d9b919061117e565b60405180910390a35b50505050565b5f73ffffffffffffffffffffffffffffffffffffffff168373ffffffffffffffffffffffffffffffffffffffff1603610dfa578060025f828254610dee9190611396565b92505081905550610ec8565b5f805f8573ffffffffffffffffffffffffffffffffffffffff1673ffffffffffffffffffffffffffffffffffffffff1681526020019081526020015f2054905081811015610e83578381836040517fe450d38c000000000000000000000000000000000000000000000000000000008152600401610e7a93929190611334565b60405180910390fd5b8181035f808673ffffffffffffffffffffffffffffffffffffffff1673ffffffffffffffffffffffffffffffffffffffff1681526020019081526020015f2081905550505b5f73ffffffffffffffffffffffffffffffffffffffff168273ffffffffffffffffffffffffffffffffffffffff1603610f0f578060025f8282540392505081905550610f59565b805f808473ffffffffffffffffffffffffffffffffffffffff1673ffffffffffffffffffffffffffffffffffffffff1681526020019081526020015f205f82825401925050819055505b8173ffffffffffffffffffffffffffffffffffffffff168373ffffffffffffffffffffffffffffffffffffffff167fddf252ad1be2c89b69c2b068fc378daa952ba7f163c4a11628f55a4df523b3ef83604051610fb6919061117e565b60405180910390a3505050565b5f81519050919050565b5f82825260208201905092915050565b5f5b83811015610ffa578082015181840152602081019050610fdf565b5f8484015250505050565b5f601f19601f8301169050919050565b5f61101f82610fc3565b6110298185610fcd565b9350611039818560208601610fdd565b61104281611005565b840191505092915050565b5f6020820190508181035f8301526110658184611015565b905092915050565b5f80fd5b5f73ffffffffffffffffffffffffffffffffffffffff82169050919050565b5f61109a82611071565b9050919050565b6110aa81611090565b81146110b4575f80fd5b50565b5f813590506110c5816110a1565b92915050565b5f819050919050565b6110dd816110cb565b81146110e7575f80fd5b50565b5f813590506110f8816110d4565b92915050565b5f80604083850312156111145761111361106d565b5b5f611121858286016110b7565b9250506020611132858286016110ea565b9150509250929050565b5f8115159050919050565b6111508161113c565b82525050565b5f6020820190506111695f830184611147565b92915050565b611178816110cb565b82525050565b5f6020820190506111915f83018461116f565b92915050565b5f805f606084860312156111ae576111ad61106d565b5b5f6111bb868287016110b7565b93505060206111cc868287016110b7565b92505060406111dd868287016110ea565b9150509250925092565b5f60ff82169050919050565b6111fc816111e7565b82525050565b5f6020820190506112155f8301846111f3565b92915050565b5f602082840312156112305761122f61106d565b5b5f61123d848285016110ea565b91505092915050565b61124f81611090565b82525050565b5f6020820190506112685f830184611246565b92915050565b5f602082840312156112835761128261106d565b5b5f611290848285016110b7565b91505092915050565b5f80604083850312156112af576112ae61106d565b5b5f6112bc858286016110b7565b92505060206112cd858286016110b7565b9150509250929050565b7f4e487b71000000000000000000000000000000000000000000000000000000005f52602260045260245ffd5b5f600282049050600182168061131b57607f821691505b60208210810361132e5761132d6112d7565b5b50919050565b5f6060820190506113475f830186611246565b611354602083018561116f565b611361604083018461116f565b949350505050565b7f4e487b71000000000000000000000000000000000000000000000000000000005f52601160045260245ffd5b5f6113a0826110cb565b91506113ab836110cb565b92508282019050808211156113c3576113c2611369565b5b9291505056fea2646970667358221220e72db69b9b5b834840091f0aafa5692b74bd496f7e6acb1a425518b6efc5c3f864736f6c63430008150033",
  "immutableReferences": {},
  "source": "// SPDX-License-Identifier: MIT\npragma solidity >=0.4.22 <0.9.0;\n\nimport \"@openzeppelin/contracts/token/ERC20/ERC20.sol\";\nimport \"@openzeppelin/contracts/access/Ownable.sol\";\n\ncontract TWDemo is ERC20, Ownable {\n    // Total token supply\n    uint256 private constant TOTAL_SUPPLY = 1_000_000_000 * 10 ** 18; // 1 Billion tokens with 18 decimals\n\n    // Distribution percentages (as fractions of total supply)\n    uint256 private constant COMMUNITY_INCENTIVES = (TOTAL_SUPPLY * 35) / 100; // 35%\n    uint256 private constant MERCHANT_ADOPTION_FUND = (TOTAL_SUPPLY * 20) / 100; // 20%\n    uint256 private constant ECOSYSTEM_DEVELOPMENT = (TOTAL_SUPPLY * 20) / 100; // 20%\n    uint256 private constant TEAM_AND_ADVISORS = (TOTAL_SUPPLY * 10) / 100; // 10%\n    uint256 private constant LIQUIDITY_AND_EXCHANGE = (TOTAL_SUPPLY * 10) / 100; // 10%\n    uint256 private constant RESERVE_FUND = (TOTAL_SUPPLY * 5) / 100; // 5%\n\n    // Addresses for each allocation\n    address public communityIncentivesWallet;\n    address public merchantAdoptionWallet;\n    address public ecosystemDevelopmentWallet;\n    address public teamAndAdvisorsWallet;\n    address public liquidityAndExchangeWallet;\n    address public reserveFundWallet;\n\n    constructor(\n        address _communityIncentivesWallet,\n        address _merchantAdoptionWallet,\n        address _ecosystemDevelopmentWallet,\n        address _teamAndAdvisorsWallet,\n        address _liquidityAndExchangeWallet,\n        address _reserveFundWallet\n    ) ERC20(\"TW Demo\", \"TWDemo\") Ownable(msg.sender) {\n        // Set allocation wallets\n        communityIncentivesWallet = _communityIncentivesWallet;\n        merchantAdoptionWallet = _merchantAdoptionWallet;\n        ecosystemDevelopmentWallet = _ecosystemDevelopmentWallet;\n        teamAndAdvisorsWallet = _teamAndAdvisorsWallet;\n        liquidityAndExchangeWallet = _liquidityAndExchangeWallet;\n        reserveFundWallet = _reserveFundWallet;\n\n        // Distribute tokens\n        _mint(communityIncentivesWallet, COMMUNITY_INCENTIVES);\n        _mint(merchantAdoptionWallet, MERCHANT_ADOPTION_FUND);\n        _mint(ecosystemDevelopmentWallet, ECOSYSTEM_DEVELOPMENT);\n        _mint(teamAndAdvisorsWallet, TEAM_AND_ADVISORS);\n        _mint(liquidityAndExchangeWallet, LIQUIDITY_AND_EXCHANGE);\n        _mint(reserveFundWallet, RESERVE_FUND);\n    }\n\n    // Additional functionality for minting or burning (optional)\n    function mint(address to, uint256 amount) public onlyOwner {\n        _mint(to, amount);\n    }\n\n    function burn(uint256 amount) public onlyOwner {\n        _burn(msg.sender, amount);\n    }\n}",
  "sourcePath": "/Users/paulofaulstich/Workspace/Twism/token/demo/contracts/TWDemo.sol",
  "compiler": {
    "name": "solc",
    "version": "0.8.21+commit.d9974bed.Emscripten.clang"
  },
  "schemaVersion": "3.4.16",
  "updatedAt": "2024-11-26T23:57:52.597Z",
  "networkType": "ethereum",
  "devdoc": {
    "errors": {
      "ERC20InsufficientAllowance(address,uint256,uint256)": [
        {
          "details": "Indicates a failure with the `spender`s `allowance`. Used in transfers.",
          "params": {
            "allowance": "Amount of tokens a `spender` is allowed to operate with.",
            "needed": "Minimum amount required to perform a transfer.",
            "spender": "Address that may be allowed to operate on tokens without being their owner."
          }
        }
      ],
      "ERC20InsufficientBalance(address,uint256,uint256)": [
        {
          "details": "Indicates an error related to the current `balance` of a `sender`. Used in transfers.",
          "params": {
            "balance": "Current balance for the interacting account.",
            "needed": "Minimum amount required to perform a transfer.",
            "sender": "Address whose tokens are being transferred."
          }
        }
      ],
      "ERC20InvalidApprover(address)": [
        {
          "details": "Indicates a failure with the `approver` of a token to be approved. Used in approvals.",
          "params": {
            "approver": "Address initiating an approval operation."
          }
        }
      ],
      "ERC20InvalidReceiver(address)": [
        {
          "details": "Indicates a failure with the token `receiver`. Used in transfers.",
          "params": {
            "receiver": "Address to which tokens are being transferred."
          }
        }
      ],
      "ERC20InvalidSender(address)": [
        {
          "details": "Indicates a failure with the token `sender`. Used in transfers.",
          "params": {
            "sender": "Address whose tokens are being transferred."
          }
        }
      ],
      "ERC20InvalidSpender(address)": [
        {
          "details": "Indicates a failure with the `spender` to be approved. Used in approvals.",
          "params": {
            "spender": "Address that may be allowed to operate on tokens without being their owner."
          }
        }
      ],
      "OwnableInvalidOwner(address)": [
        {
          "details": "The owner is not a valid owner account. (eg. `address(0)`)"
        }
      ],
      "OwnableUnauthorizedAccount(address)": [
        {
          "details": "The caller account is not authorized to perform an operation."
        }
      ]
    },
    "events": {
      "Approval(address,address,uint256)": {
        "details": "Emitted when the allowance of a `spender` for an `owner` is set by a call to {approve}. `value` is the new allowance."
      },
      "Transfer(address,address,uint256)": {
        "details": "Emitted when `value` tokens are moved from one account (`from`) to another (`to`). Note that `value` may be zero."
      }
    },
    "kind": "dev",
    "methods": {
      "allowance(address,address)": {
        "details": "See {IERC20-allowance}."
      },
      "approve(address,uint256)": {
        "details": "See {IERC20-approve}. NOTE: If `value` is the maximum `uint256`, the allowance is not updated on `transferFrom`. This is semantically equivalent to an infinite approval. Requirements: - `spender` cannot be the zero address."
      },
      "balanceOf(address)": {
        "details": "See {IERC20-balanceOf}."
      },
      "decimals()": {
        "details": "Returns the number of decimals used to get its user representation. For example, if `decimals` equals `2`, a balance of `505` tokens should be displayed to a user as `5.05` (`505 / 10 ** 2`). Tokens usually opt for a value of 18, imitating the relationship between Ether and Wei. This is the default value returned by this function, unless it's overridden. NOTE: This information is only used for _display_ purposes: it in no way affects any of the arithmetic of the contract, including {IERC20-balanceOf} and {IERC20-transfer}."
      },
      "name()": {
        "details": "Returns the name of the token."
      },
      "owner()": {
        "details": "Returns the address of the current owner."
      },
      "renounceOwnership()": {
        "details": "Leaves the contract without owner. It will not be possible to call `onlyOwner` functions. Can only be called by the current owner. NOTE: Renouncing ownership will leave the contract without an owner, thereby disabling any functionality that is only available to the owner."
      },
      "symbol()": {
        "details": "Returns the symbol of the token, usually a shorter version of the name."
      },
      "totalSupply()": {
        "details": "See {IERC20-totalSupply}."
      },
      "transfer(address,uint256)": {
        "details": "See {IERC20-transfer}. Requirements: - `to` cannot be the zero address. - the caller must have a balance of at least `value`."
      },
      "transferFrom(address,address,uint256)": {
        "details": "See {IERC20-transferFrom}. Skips emitting an {Approval} event indicating an allowance update. This is not required by the ERC. See {xref-ERC20-_approve-address-address-uint256-bool-}[_approve]. NOTE: Does not update the allowance if the current allowance is the maximum `uint256`. Requirements: - `from` and `to` cannot be the zero address. - `from` must have a balance of at least `value`. - the caller must have allowance for ``from``'s tokens of at least `value`."
      },
      "transferOwnership(address)": {
        "details": "Transfers ownership of the contract to a new account (`newOwner`). Can only be called by the current owner."
      }
    },
    "version": 1
  },
  "userdoc": {
    "kind": "user",
    "methods": {},
    "version": 1
  }
}